S012000031396C6564736A756D702E7372656344
S11300000C9434000C943E000C943E000C943E007E
S11300100C943E000C943E000C943E000C943E0064
S11300200C943E000C943E000C943E000C943E0054
S11300300C943E000C943E000C943E000C943E0044
S11300400C943E000C943E000C943E000C943E0034
S11300500C943E000C943E000C943E000C943E0024
S11300600C943E000C943E0011241FBECFEFD8E048
S1130070DEBFCDBF0E9469000C94F6000C94000012
S113008084B18F6084B9289808950F931F938B01CE
S11300909C01299882E190E02A98B901A801082ED0
S11300A004C076956795579547950A94D2F740FF13
S11300B002C02B9A01C02B982A9A019768F78FE205
S11300C095E70197F1F700C00000299A1F910F915D
S11300D008950E944000312C212C812C912C540134
S11300E08394C32DD22D240135010C2E04C0440C5D
S11300F0551C661C771C0A94D2F7C301B2010E94F6
S113010045008E010F5F1F4F75016401002E04C06E
S1130110CC0CDD1CEE1CFF1C0A94D2F7C428D52895
S1130120E628F728C701B6010E9445002296D501AA
S1130130C40104C0880F991FAA1FBB1FCA95D2F718
S1130140BC01CD016C297D298E299F290E9445007F
S1130150C701B6010E944500C301B2010E944500D7
S1130160E8010131110509F0BECFC0E1D0E024015E
S113017035010C2E04C0440C551C661C771C0A94D3
S1130180D2F7C301B2010E944500CE010196750168
S1130190640104C0CC0CDD1CEE1CFF1C8A95D2F754
S11301A0C428D528E628F728C701B6010E944500CF
S11301B0CE010296A501940104C0220F331F441FEF
S11301C0551F8A95D2F7CA01B9016C297D298E2958
S11301D09F290E944500C701B6010E944500C30142
S11301E0B2010E944500219711F67BCFF894FFCF0E
S9030000FC
