S01500006C6564735F73686966744F75742E73726563B2
S11300000C9434000C9488000C9451000C9451000E
S11300100C9451000C9451000C9451000C94510018
S11300200C9451000C9451000C9451000C949700C2
S11300300C9451000C9451000C9451000C945100F8
S11300400C9451000C9451000C9451000C945100E8
S11300500C9451000C9451000C9451000C945100D8
S11300600C9451000C94510011241FBECFEFD8E022
S1130070DEBFCDBF11E0A0E0B1E0E8E9F5E002C0E9
S113008005900D92A230B107D9F721E0A2E0B1E0CA
S113009001C01D92AD30B207E1F70E943C020C94FE
S11300A0CA020C94000084B18C6284B92A985298D4
S11300B05A9A0895E1E8F0E0808188608083808125
S11300C08560808380EA96E090938900809388001D
S11300D0EFE6F0E080818260808308950F931F93A0
S11300E02A988C01222733270EBD0DB407FEFDCFBD
S11300F0072F182F292F33270EBD0DB407FEFDCF70
S11301006EBD0DB407FEFDCF2A9A1F910F9108957D
S11301101F920F920FB60F9211248F9381E0809358
S11301200A018F910F900FBE0F901F9018951F9288
S11301300F920FB60F9211248F9381E080930B01DD
S11301408F910F900FBE0F901F9018950F931F93D0
S1130150809109018331B0F441E050E060E070E047
S11301608A019B0104C0000F111F221F331F8A95AF
S1130170D2F70093050110930601209307013093F1
S1130180080128C08632C0F425E230E0281B31097A
S113019081E090E0A0E0B0E004C0880F991FAA1F9E
S11301A0BB1F2A95D2F78093050190930601A09373
S11301B00701B09308010EC01092090181E090E09C
S11301C0A0E0B0E08093050190930601A09307019D
S11301D0B0930801609105017091060180910701B7
S11301E0909108010E946E00809109018F5F8093B5
S11301F009011F910F9108954F925F926F927F9220
S11302008F929F92AF92BF92CF92DF92EF92FF9222
S1130210CF93DF931092050110920601109207010B
S11302201092080140910001442369F1E091040116
S113023020E030E0C12CD12C7601F0E0C3E1D0E025
S1130240812C912C54018394CF01820F931FBE0102
S11302500E94A2022401350104C0440C551C661CF2
S1130260771C8A95D2F7C428D528E628F7282F5F6B
S11302703F4F241748F3C0920501D0920601E09243
S11302800701F09208018091040190E0019663E176
S113029070E00E94A20280930401811116C0809133
S11302A0030181110AC0433020F44F5F40930001E1
S11302B00CC081E08093030108C0423020F041501B
S11302C04093000102C010920301609105017091F6
S11302D0060180910701909108010E946E00DF9150
S11302E0CF91FF90EF90DF90CF90BF90AF909F9011
S11302F08F907F906F905F904F900895CF92DF9290
S1130300EF92FF920F931F938091020181113FC0DE
S1130310809109018A30A8F541E050E060E070E086
S11303206A017B01082E04C0CC0CDD1CEE1CFF1CF2
S11303300A94D2F70091050110910601209107015A
S1130340309108010C291D292E293F29E2E1F0E012
S1130350E81BF10904C0440F551F661F771FEA9577
S1130360D2F7402B512B622B732B409305015093F2
S1130370060160930701709308018F5F8093090160
S11303806AC081E0809302011092090164C0813047
S113039091F48FEF9FEFA7E0B0E080930501909375
S11303A00601A0930701B093080182E08093020143
S11303B01092090150C0823009F04DC080910901AA
S11303C08A30E8F541E050E060E070E08A019B018A
S11303D0082E04C0000F111F221F331F0A94D2F7E6
S11303E00095109520953095C0900501D090060198
S11303F0E0900701F09008010C211D212E213F21DE
S1130400E2E1F0E0E81BF10904C0440F551F661F48
S1130410771FEA95D2F740955095609570954023E3
S11304205123622373234093050150930601609383
S11304300701709308018F5F809309010CC010922B
S11304400201109209011092050110920601109206
S113045007011092080160910501709106018091D5
S11304600701909108010E946E001F910F91FF9067
S1130470EF90DF90CF9008950E9453000E945A009D
S113048081E58CBDE9E6F0E0808182608083E89AB2
S11304907894C3E0D0E0E12CF12C00E010E050911E
S11304A009014091050130910601209107019091C5
S11304B0080180910A01882381F080910C0190E069
S11304C00196BE010E94A20280930C0110920A01BF
S11304D04E2D3F2D202F912F50E080910B0188232A
S11304E041F310920B0180910C01813089F018F0D6
S11304F08230D9F0DECF5093090140930501309347
S1130500060120930701909308010E94A600C7CF1B
S1130510509309014093050130930601209307018C
S1130520909308010E94FC00BACF509309014093B4
S113053005013093060120930701909308010E945E
S11305407E01ADCF97FB072E16F4009407D077FDFC
S113055009D00E94B60207FC05D03EF4909581951F
S11305609F4F0895709561957F4F0895AA1BBB1BFB
S113057051E107C0AA1FBB1FA617B70710F0A61B9F
S1130580B70B881F991F5A95A9F780959095BC01C0
S10B0590CD010895F894FFCF9A
S105059801005C
S9030000FC
