S01700006C65647331395F63726561746976652E7372656349
S11300000C9434000C948A000C9446000C94460022
S11300100C9446000C9446000C9446000C94460044
S11300200C9446000C9446000C9446000C949900E1
S11300300C9446000C9446000C9446000C94460024
S11300400C9446000C9446000C9446000C94460014
S11300500C9446000C9446000C9446000C94460004
S11300600C9446000C94460011241FBECFEFD8E038
S1130070DEBFCDBF21E0A0E0B1E001C01D92A330FE
S1130080B207E1F70E9401030C9456030C9400009C
S113009084B18F6084B9289852985A9A0895E1E8F7
S11300A0F0E080818860808380818560808384EF34
S11300B090E09093890080938800EFE6F0E08081DF
S11300C0826080830895809101018823E1F3109276
S11300D0010108950F931F938B019C01299882E1DC
S11300E090E02A98B901A801082E04C07695679576
S11300F0579547950A94D2F740FF02C02B9A01C046
S11301002B982A9A019768F70E946300299A1F91F5
S11301100F9108951F920F920FB60F9211248F938F
S113012081E0809300018F910F900FBE0F901F907C
S113013018951F920F920FB60F9211248F9381E09E
S1130140809301018F910F900FBE0F901F9018950F
S1130150CF92DF92EF92FF92CF93DF9380910001D1
S11301608823D1F146C080910001811142C0C701AA
S1130170B6010C2E04C0660F771F881F991F0A94BE
S1130180D2F70E946A002196C331D10561F78091AC
S113019000018823A1F02DC080910001811129C0A4
S11301A0C701B6010C2E04C0660F771F881F991F64
S11301B00A94D2F70E946A00219770F71AC060E08F
S11301C070E084E090E00E946A00C1E1D0E0C12CBC
S11301D0D12C7601C394E0CF61E070E080E090E040
S11301E00E946A00C1E0D0E0C12CD12C7601C394F6
S11301F0BACFDF91CF91FF90EF90DF90CF90089529
S11302004F925F926F927F928F929F92AF92BF9222
S1130210CF92DF92EF92FF920F931F93CF93DF93CE
S113022000D000D000D0CDB7DEB78091000181119D
S11302300CC11E821D82412C512C3201439406C0F4
S1130240809100011E830D838111FFC0730162013F
S11302500D8004C0CC0CDD1CEE1CFF1C0A94D2F7EC
S1130260C701B6010E946A00809100018111EDC0AE
S11302700D811E810F5F1F4F53014201002E04C0E8
S1130280880C991CAA1CBB1C0A94D2F7D701C6017E
S113029088299929AA29BB2989839A83AB83BC839A
S11302A0BC01CD010E946A00809100018111CDC082
S11302B08D819E8102967301620104C0CC0CDD1C09
S11302C0EE1CFF1C8A95D2F789819A81AB81BC818F
S11302D08C299D29AE29BF2989839A83AB83BC834A
S11302E0BC01CD010E946A00809100018111ADC062
S11302F0C094D094E094F09489819A81AB81BC81BC
S1130300C822D922EA22FB22C701B6010E946A0050
S113031080910001811199C080949094A094B0942C
S1130320C501B4016C217D218E219F210E946A00A8
S1130330AD81BE81509709F083CF80910001811176
S113034084C0412C512C320143940AC08091000195
S11303502D813E81215031093E832D83811175C049
S1130360730162010D8004C0CC0CDD1CEE1CFF1C6B
S11303700A94D2F7C701B6010E946A008091000175
S1130380811163C08D819E8101965301420104C095
S1130390880C991CAA1CBB1C8A95D2F7D701C601EC
S11303A088299929AA29BB2989839A83AB83BC8389
S11303B0BC01CD010E946A0080910001811145C0F9
S11303C08D819E8102967301620104C0CC0CDD1CF8
S11303D0EE1CFF1C8A95D2F789819A81AB81BC817E
S11303E08C299D29AE29BF2989839A83AB83BC8339
S11303F0BC01CD010E946A0080910001811125C0D9
S1130400C094D094E094F09489819A81AB81BC81AA
S1130410C822D922EA22FB22C701B6010E946A003F
S113042080910001811111C080949094A094B094A3
S1130430C501B4016C217D218E219F210E946A0097
S1130440AD81BE81119709F081CF26960FB6F8943D
S1130450DEBF0FBECDBFDF91CF911F910F91FF90F3
S1130460EF90DF90CF90BF90AF909F908F907F9050
S11304706F905F904F9008958F929F92AF92BF922A
S1130480CF92DF92EF92FF920F931F93CF93DF935C
S1130490809100018111A8C0C0E0D0E0C12CD12C12
S11304A07601812C912C5401839402E110E005C063
S11304B0809100012196811197C0D501C4010C2EB1
S11304C004C0880F991FAA1FBB1F0A94D2F7C82A19
S11304D0D92AEA2AFB2AC701B6010E946A00809140
S11304E00001811181C0C8018C1B9D0BA5019401E1
S11304F004C0220F331F441F551F8A95D2F7C22A06
S1130500D32AE42AF52AC701B6010E946A00C93039
S1130510D10571F680910001811166C06FEF7FEF04
S113052087E090E00E946A008FE493EC0197F1F772
S113053000C0000080910001811156C0C0E0D0E0ED
S11305400F2ECC24CA94DC2CF7E0EF2EF12CF02DE6
S1130550812C912C5401839402E110E005C0809118
S113056000012196811140C0D501C4010C2E04C0A4
S1130570880F991FAA1FBB1F0A94D2F780959095E4
S1130580A095B095C822D922EA22FB22C701B60160
S11305900E946A0080910001811126C0C8018C1B51
S11305A09D0BA501940104C0220F331F441F551F46
S11305B08A95D2F7DA01C90180959095A095B095F6
S11305C0C822D922EA22FB22C701B6010E946A008E
S11305D0C930D10521F680910001811105C060E088
S11305E070E0CB010E946A00DF91CF911F910F91BF
S11305F0FF90EF90DF90CF90BF90AF909F908F903F
S113060008950E9448000E944F00E9E6F0E08081CE
S113061082608083E89A7894C3E0D0E080910001FE
S1130620882359F08091020190E00196BE010E9456
S11306302E03809302011092000180910201813007
S113064039F018F0823039F0E9CF0E94A800E6CFE3
S11306500E940001E3CF0E943C02E0CF97FB072EEB
S113066016F4009407D077FD09D00E94420307FCDA
S113067005D03EF4909581959F4F089570956195AE
S11306807F4F0895AA1BBB1B51E107C0AA1FBB1FC4
S1130690A617B70710F0A61BB70B881F991F5A950A
S11306A0A9F780959095BC01CD010895F894FFCFEA
S9030000FC
