:100000000C9434000C9493000C9451000C94510007
:100010000C9451000C9451000C9451000C9451001C
:100020000C9451000C9451000C9451000C94B100AC
:100030000C9451000C9451000C9451000C945100FC
:100040000C9451000C9451000C9451000C945100EC
:100050000C9451000C9451000C9451000C945100DC
:100060000C9451000C94510011241FBECFEFD8E026
:10007000DEBFCDBF11E0A0E0B1E0E0EDF5E002C0F1
:1000800005900D92A230B107D9F721E0A2E0B1E0CE
:1000900001C01D92AD30B207E1F70E9451020C94ED
:1000A000E6020C94000084B18FEF84B987B18F63AE
:1000B00087B98AB183678AB952985A9A089510927B
:1000C0008000E1E8F0E08081886080838081856045
:1000D0008083EFE6F0E080818260808380E991E0B8
:1000E0009093890080938800089565B9272F2F7316
:1000F00028B976FF02C0589A01C0589877FF02C00D
:10010000599A01C0599880FF02C05C9A01C05C985E
:1001100081FF02C05D9A01C05D9882FF02C05E9AB5
:1001200008955E9808951F920F920FB60F921124B2
:100130002F938F939F932FEF86E791E0215080407C
:100140009040E1F700C000004A9903C081E080932D
:100150000A019F918F912F910F900FBE0F901F90CA
:1001600018951F920F920FB60F9211248F9381E072
:1001700080930B018F910F900FBE0F901F901895D9
:100180000F931F93809109018331B0F441E050E057
:1001900060E070E08A019B0104C0000F111F221F64
:1001A000331F8A95D2F7009305011093060120931F
:1001B00007013093080128C08632C0F425E230E000
:1001C000281B310981E090E0A0E0B0E004C0880F76
:1001D000991FAA1FBB1F2A95D2F780930501909300
:1001E0000601A0930701B09308010EC01092090107
:1001F00081E090E0A0E0B0E08093050190930601DB
:10020000A0930701B0930801609105017091060168
:1002100080910701909108010E9475008091090169
:100220008F5F809309011F910F9108954F925F9204
:100230006F927F928F929F92AF92BF92CF92DF92F6
:10024000EF92FF92CF93DF93109205011092060177
:10025000109207011092080140910001442369F1B6
:10026000E091030120E030E0C12CD12C7601F0E0D8
:10027000C3E1D0E0812C912C54018394CF01820FF3
:10028000931FBE010E94BE022401350104C0440C2C
:10029000551C661C771C8A95D2F7C428D528E628F9
:1002A000F7282F5F3F4F241748F3C0920501D092E3
:1002B0000601E0920701F09208018091030190E0AD
:1002C000019663E170E00E94BE02809303018111F8
:1002D00016C08091020181110AC0433020F44F5FA3
:1002E000409300010CC081E08093020108C04230BD
:1002F00020F041504093000102C010920201609131
:1003000005017091060180910701909108010E94FA
:100310007500DF91CF91FF90EF90DF90CF90BF906D
:10032000AF909F908F907F906F905F904F900895C7
:10033000CF92DF92EF92FF920F931F93809104016F
:1003400081113FC0809109018A30A8F541E050E059
:1003500060E070E06A017B01082E04C0CC0CDD1C5B
:10036000EE1CFF1C0A94D2F70091050110910601C2
:1003700020910701309108010C291D292E293F29C0
:10038000E2E1F0E0E81BF10904C0440F551F661FCD
:10039000771FEA95D2F7402B512B622B732B40939A
:1003A00005015093060160930701709308018F5F68
:1003B0008093090165C081E08093040110920901D6
:1003C0005FC0813081F48FEF9FEFA7E0B0E08093B2
:1003D000050190930601A0930701B093080182E004
:1003E000809304014DC0809109018A30E8F541E015
:1003F00050E060E070E08A019B01082E04C0000F0D
:10040000111F221F331F0A94D2F7009510952095D3
:100410003095C0900501D0900601E0900701F09062
:1004200008010C211D212E213F21E2E1F0E0E81B13
:10043000F10904C0440F551F661F771FEA95D2F7D4
:100440004095509560957095402351236223732306
:1004500040930501509306016093070170930801D2
:100460008F5F809309010CC0109204011092090162
:1004700010920501109206011092070110920801D6
:10048000609105017091060180910701909108012A
:100490000E9475001F910F91FF90EF90DF90CF9019
:1004A00008950E9453000E945F00E9E6F0E0808119
:1004B00082608083E89A7894C3E0D0E0E12CF12C4C
:1004C00000E010E0609109015091050140910601A2
:1004D00030910701209108019091040180910A0157
:1004E000882389F080910C0190E00196BE010E9462
:1004F000BE0280930C0110920A0190E05E2D4F2DF8
:10050000302F212F60E080910B01882339F3109266
:100510000B0180910C01813099F018F08230F9F0D4
:10052000DDCF60930901509305014093060130939C
:10053000070120930801909304010E94C000C2CFDC
:100540006093090150930501409306013093070120
:1005500020930801909304010E941601B3CF609389
:100560000901509305014093060130930701209340
:100570000801909304010E949801A4CF97FB072ED5
:1005800016F4009407D077FD09D00E94D20207FC30
:1005900005D03EF4909581959F4F08957095619593
:1005A0007F4F0895AA1BBB1B51E107C0AA1FBB1FA9
:1005B000A617B70710F0A61BB70B881F991F5A95EF
:1005C000A9F780959095BC01CD010895F894FFCFCF
:0205D000010028
:00000001FF
