:100000000C9434000C943E000C943E000C943E0082
:100010000C943E000C943E000C943E000C943E0068
:100020000C943E000C943E000C943E000C943E0058
:100030000C943E000C943E000C943E000C943E0048
:100040000C943E000C943E000C943E000C943E0038
:100050000C943E000C943E000C943E000C943E0028
:100060000C943E000C943E0011241FBECFEFD8E04C
:10007000DEBFCDBF0E9463000C94AB000C94000067
:1000800084B18F6084B9289808950F931F938B01D2
:100090009C01299887E190E02A98B901A801082ECF
:1000A00004C076956795579547950A94D2F740FF17
:1000B00002C02B9A01C02B982A9A019768F7299AB7
:1000C0001F910F9108950E944000812C912C5401A2
:1000D0008394C0E0D0E0C12CD12C7601D501C401BD
:1000E0000C2E04C0880F991FAA1FBB1F0A94D2F7B9
:1000F000C82AD92AEA2AFB2AC701B6010E9445006C
:1001000087EA91E60197F1F700C000002196C3311C
:10011000D10521F7C2E1D0E0D501C4010C2E04C005
:10012000880F991FAA1FBB1F0A94D2F7809590953C
:10013000A095B095C822D922EA22FB22C701B601B8
:100140000E94450087EA91E60197F1F700C00000A0
:0A015000219710F7BECFF894FFCFFF
:00000001FF
